{
  "_format": "hh-sol-artifact-1",
  "contractName": "GLD",
  "sourceName": "contracts/GLD.sol",
  "abi": [
    {
      "inputs": [
        {
          "internalType": "uint256",
          "name": "initial",
          "type": "uint256"
        }
      ],
      "stateMutability": "nonpayable",
      "type": "constructor"
    },
    {
      "inputs": [
        {
          "internalType": "address",
          "name": "spender",
          "type": "address"
        },
        {
          "internalType": "uint256",
          "name": "allowance",
          "type": "uint256"
        },
        {
          "internalType": "uint256",
          "name": "needed",
          "type": "uint256"
        }
      ],
      "name": "ERC20InsufficientAllowance",
      "type": "error"
    },
    {
      "inputs": [
        {
          "internalType": "address",
          "name": "sender",
          "type": "address"
        },
        {
          "internalType": "uint256",
          "name": "balance",
          "type": "uint256"
        },
        {
          "internalType": "uint256",
          "name": "needed",
          "type": "uint256"
        }
      ],
      "name": "ERC20InsufficientBalance",
      "type": "error"
    },
    {
      "inputs": [
        {
          "internalType": "address",
          "name": "approver",
          "type": "address"
        }
      ],
      "name": "ERC20InvalidApprover",
      "type": "error"
    },
    {
      "inputs": [
        {
          "internalType": "address",
          "name": "receiver",
          "type": "address"
        }
      ],
      "name": "ERC20InvalidReceiver",
      "type": "error"
    },
    {
      "inputs": [
        {
          "internalType": "address",
          "name": "sender",
          "type": "address"
        }
      ],
      "name": "ERC20InvalidSender",
      "type": "error"
    },
    {
      "inputs": [
        {
          "internalType": "address",
          "name": "spender",
          "type": "address"
        }
      ],
      "name": "ERC20InvalidSpender",
      "type": "error"
    },
    {
      "anonymous": false,
      "inputs": [
        {
          "indexed": true,
          "internalType": "address",
          "name": "owner",
          "type": "address"
        },
        {
          "indexed": true,
          "internalType": "address",
          "name": "spender",
          "type": "address"
        },
        {
          "indexed": false,
          "internalType": "uint256",
          "name": "value",
          "type": "uint256"
        }
      ],
      "name": "Approval",
      "type": "event"
    },
    {
      "anonymous": false,
      "inputs": [
        {
          "indexed": true,
          "internalType": "uint256",
          "name": "candidateId",
          "type": "uint256"
        },
        {
          "indexed": false,
          "internalType": "string",
          "name": "name",
          "type": "string"
        }
      ],
      "name": "CandidateAdded",
      "type": "event"
    },
    {
      "anonymous": false,
      "inputs": [
        {
          "indexed": true,
          "internalType": "address",
          "name": "from",
          "type": "address"
        },
        {
          "indexed": true,
          "internalType": "address",
          "name": "to",
          "type": "address"
        },
        {
          "indexed": false,
          "internalType": "uint256",
          "name": "value",
          "type": "uint256"
        }
      ],
      "name": "Transfer",
      "type": "event"
    },
    {
      "anonymous": false,
      "inputs": [
        {
          "indexed": true,
          "internalType": "address",
          "name": "voter",
          "type": "address"
        },
        {
          "indexed": true,
          "internalType": "uint256",
          "name": "candidateId",
          "type": "uint256"
        }
      ],
      "name": "VoteCasted",
      "type": "event"
    },
    {
      "inputs": [
        {
          "internalType": "string",
          "name": "name",
          "type": "string"
        }
      ],
      "name": "addCandidate",
      "outputs": [],
      "stateMutability": "nonpayable",
      "type": "function"
    },
    {
      "inputs": [
        {
          "internalType": "address",
          "name": "owner",
          "type": "address"
        },
        {
          "internalType": "address",
          "name": "spender",
          "type": "address"
        }
      ],
      "name": "allowance",
      "outputs": [
        {
          "internalType": "uint256",
          "name": "",
          "type": "uint256"
        }
      ],
      "stateMutability": "view",
      "type": "function"
    },
    {
      "inputs": [
        {
          "internalType": "address",
          "name": "spender",
          "type": "address"
        },
        {
          "internalType": "uint256",
          "name": "amount",
          "type": "uint256"
        }
      ],
      "name": "approve",
      "outputs": [
        {
          "internalType": "bool",
          "name": "",
          "type": "bool"
        }
      ],
      "stateMutability": "nonpayable",
      "type": "function"
    },
    {
      "inputs": [
        {
          "internalType": "address",
          "name": "account",
          "type": "address"
        }
      ],
      "name": "balanceOf",
      "outputs": [
        {
          "internalType": "uint256",
          "name": "",
          "type": "uint256"
        }
      ],
      "stateMutability": "view",
      "type": "function"
    },
    {
      "inputs": [
        {
          "internalType": "uint256",
          "name": "",
          "type": "uint256"
        }
      ],
      "name": "candidates",
      "outputs": [
        {
          "internalType": "string",
          "name": "name",
          "type": "string"
        },
        {
          "internalType": "uint256",
          "name": "voteCount",
          "type": "uint256"
        }
      ],
      "stateMutability": "view",
      "type": "function"
    },
    {
      "inputs": [],
      "name": "decimals",
      "outputs": [
        {
          "internalType": "uint8",
          "name": "",
          "type": "uint8"
        }
      ],
      "stateMutability": "view",
      "type": "function"
    },
    {
      "inputs": [],
      "name": "getAllCandidates",
      "outputs": [
        {
          "components": [
            {
              "internalType": "string",
              "name": "name",
              "type": "string"
            },
            {
              "internalType": "uint256",
              "name": "voteCount",
              "type": "uint256"
            }
          ],
          "internalType": "struct GLD.Candidate[]",
          "name": "",
          "type": "tuple[]"
        }
      ],
      "stateMutability": "view",
      "type": "function"
    },
    {
      "inputs": [
        {
          "internalType": "uint256",
          "name": "candidateId",
          "type": "uint256"
        }
      ],
      "name": "getVoteCount",
      "outputs": [
        {
          "internalType": "uint256",
          "name": "",
          "type": "uint256"
        }
      ],
      "stateMutability": "view",
      "type": "function"
    },
    {
      "inputs": [],
      "name": "name",
      "outputs": [
        {
          "internalType": "string",
          "name": "",
          "type": "string"
        }
      ],
      "stateMutability": "view",
      "type": "function"
    },
    {
      "inputs": [],
      "name": "symbol",
      "outputs": [
        {
          "internalType": "string",
          "name": "",
          "type": "string"
        }
      ],
      "stateMutability": "view",
      "type": "function"
    },
    {
      "inputs": [],
      "name": "totalSupply",
      "outputs": [
        {
          "internalType": "uint256",
          "name": "",
          "type": "uint256"
        }
      ],
      "stateMutability": "view",
      "type": "function"
    },
    {
      "inputs": [
        {
          "internalType": "address",
          "name": "to",
          "type": "address"
        },
        {
          "internalType": "uint256",
          "name": "value",
          "type": "uint256"
        }
      ],
      "name": "transfer",
      "outputs": [
        {
          "internalType": "bool",
          "name": "",
          "type": "bool"
        }
      ],
      "stateMutability": "nonpayable",
      "type": "function"
    },
    {
      "inputs": [
        {
          "internalType": "address",
          "name": "sender",
          "type": "address"
        },
        {
          "internalType": "address",
          "name": "recipient",
          "type": "address"
        },
        {
          "internalType": "uint256",
          "name": "amount",
          "type": "uint256"
        }
      ],
      "name": "transferFrom",
      "outputs": [
        {
          "internalType": "bool",
          "name": "",
          "type": "bool"
        }
      ],
      "stateMutability": "nonpayable",
      "type": "function"
    },
    {
      "inputs": [
        {
          "internalType": "uint256",
          "name": "candidateId",
          "type": "uint256"
        }
      ],
      "name": "vote",
      "outputs": [],
      "stateMutability": "nonpayable",
      "type": "function"
    },
    {
      "inputs": [
        {
          "internalType": "address",
          "name": "",
          "type": "address"
        }
      ],
      "name": "voters",
      "outputs": [
        {
          "internalType": "bool",
          "name": "hasVoted",
          "type": "bool"
        },
        {
          "internalType": "uint256",
          "name": "votedCandidateId",
          "type": "uint256"
        }
      ],
      "stateMutability": "view",
      "type": "function"
    }
  ],
  "bytecode": "0x608060405234801561001057600080fd5b506040516128a63803806128a68339818101604052810190610032919061050a565b6040518060400160405280600481526020017f476f6c64000000000000000000000000000000000000000000000000000000008152506040518060400160405280600381526020017f474c44000000000000000000000000000000000000000000000000000000000081525081600390816100ad919061077d565b5080600490816100bd919061077d565b5050506101066040518060400160405280600d81526020017f4465706c6f79696e6720474c4400000000000000000000000000000000000000815250338361011c60201b60201c565b61011633826101c160201b60201c565b50610a61565b6101bc83838360405160240161013493929190610924565b6040516020818303038152906040527f0d26b925000000000000000000000000000000000000000000000000000000007bffffffffffffffffffffffffffffffffffffffffffffffffffffffff19166020820180517bffffffffffffffffffffffffffffffffffffffffffffffffffffffff838183161783525050505061024960201b60201c565b505050565b600073ffffffffffffffffffffffffffffffffffffffff168273ffffffffffffffffffffffffffffffffffffffff16036102335760006040517fec442f0500000000000000000000000000000000000000000000000000000000815260040161022a9190610962565b60405180910390fd5b6102456000838361026d60201b60201c565b5050565b61026a8161026561049260201b610b0f176104b360201b60201c565b60201c565b50565b600073ffffffffffffffffffffffffffffffffffffffff168373ffffffffffffffffffffffffffffffffffffffff16036102bf5780600260008282546102b391906109ac565b92505081905550610392565b60008060008573ffffffffffffffffffffffffffffffffffffffff1673ffffffffffffffffffffffffffffffffffffffff1681526020019081526020016000205490508181101561034b578381836040517fe450d38c000000000000000000000000000000000000000000000000000000008152600401610342939291906109e0565b60405180910390fd5b8181036000808673ffffffffffffffffffffffffffffffffffffffff1673ffffffffffffffffffffffffffffffffffffffff16815260200190815260200160002081905550505b600073ffffffffffffffffffffffffffffffffffffffff168273ffffffffffffffffffffffffffffffffffffffff16036103db5780600260008282540392505081905550610428565b806000808473ffffffffffffffffffffffffffffffffffffffff1673ffffffffffffffffffffffffffffffffffffffff168152602001908152602001600020600082825401925050819055505b8173ffffffffffffffffffffffffffffffffffffffff168373ffffffffffffffffffffffffffffffffffffffff167fddf252ad1be2c89b69c2b068fc378daa952ba7f163c4a11628f55a4df523b3ef836040516104859190610a17565b60405180910390a3505050565b60006a636f6e736f6c652e6c6f679050600080835160208501845afa505050565b6104c560201b6111e717819050919050565b6104cd610a32565b565b600080fd5b6000819050919050565b6104e7816104d4565b81146104f257600080fd5b50565b600081519050610504816104de565b92915050565b6000602082840312156105205761051f6104cf565b5b600061052e848285016104f5565b91505092915050565b600081519050919050565b7f4e487b7100000000000000000000000000000000000000000000000000000000600052604160045260246000fd5b7f4e487b7100000000000000000000000000000000000000000000000000000000600052602260045260246000fd5b600060028204905060018216806105b857607f821691505b6020821081036105cb576105ca610571565b5b50919050565b60008190508160005260206000209050919050565b60006020601f8301049050919050565b600082821b905092915050565b6000600883026106337fffffffffffffffffffffffffffffffffffffffffffffffffffffffffffffffff826105f6565b61063d86836105f6565b95508019841693508086168417925050509392505050565b6000819050919050565b600061067a610675610670846104d4565b610655565b6104d4565b9050919050565b6000819050919050565b6106948361065f565b6106a86106a082610681565b848454610603565b825550505050565b600090565b6106bd6106b0565b6106c881848461068b565b505050565b5b818110156106ec576106e16000826106b5565b6001810190506106ce565b5050565b601f82111561073157610702816105d1565b61070b846105e6565b8101602085101561071a578190505b61072e610726856105e6565b8301826106cd565b50505b505050565b600082821c905092915050565b600061075460001984600802610736565b1980831691505092915050565b600061076d8383610743565b9150826002028217905092915050565b61078682610537565b67ffffffffffffffff81111561079f5761079e610542565b5b6107a982546105a0565b6107b48282856106f0565b600060209050601f8311600181146107e757600084156107d5578287015190505b6107df8582610761565b865550610847565b601f1984166107f5866105d1565b60005b8281101561081d578489015182556001820191506020850194506020810190506107f8565b8683101561083a5784890151610836601f891682610743565b8355505b6001600288020188555050505b505050505050565b600082825260208201905092915050565b60005b8381101561087e578082015181840152602081019050610863565b60008484015250505050565b6000601f19601f8301169050919050565b60006108a682610537565b6108b0818561084f565b93506108c0818560208601610860565b6108c98161088a565b840191505092915050565b600073ffffffffffffffffffffffffffffffffffffffff82169050919050565b60006108ff826108d4565b9050919050565b61090f816108f4565b82525050565b61091e816104d4565b82525050565b6000606082019050818103600083015261093e818661089b565b905061094d6020830185610906565b61095a6040830184610915565b949350505050565b60006020820190506109776000830184610906565b92915050565b7f4e487b7100000000000000000000000000000000000000000000000000000000600052601160045260246000fd5b60006109b7826104d4565b91506109c2836104d4565b92508282019050808211156109da576109d961097d565b5b92915050565b60006060820190506109f56000830186610906565b610a026020830185610915565b610a0f6040830184610915565b949350505050565b6000602082019050610a2c6000830184610915565b92915050565b7f4e487b7100000000000000000000000000000000000000000000000000000000600052605160045260246000fd5b611e3680610a706000396000f3fe608060405234801561001057600080fd5b50600436106100f55760003560e01c80633477ee2e11610097578063a3ec138d11610066578063a3ec138d14610289578063a9059cbb146102ba578063b2c2f2e8146102ea578063dd62ed3e1461031a576100f5565b80633477ee2e146101ee578063462e91ec1461021f57806370a082311461023b57806395d89b411461026b576100f5565b806318160ddd116100d357806318160ddd1461016457806323b872dd146101825780632e6997fe146101b2578063313ce567146101d0576100f5565b80630121b93f146100fa57806306fdde0314610116578063095ea7b314610134575b600080fd5b610114600480360381019061010f919061123b565b61034a565b005b61011e610527565b60405161012b91906112f8565b60405180910390f35b61014e60048036038101906101499190611378565b6105b9565b60405161015b91906113d3565b60405180910390f35b61016c61060e565b60405161017991906113fd565b60405180910390f35b61019c60048036038101906101979190611418565b610618565b6040516101a991906113d3565b60405180910390f35b6101ba61066f565b6040516101c791906115c3565b60405180910390f35b6101d861076a565b6040516101e59190611601565b60405180910390f35b6102086004803603810190610203919061123b565b610773565b60405161021692919061161c565b60405180910390f35b61023960048036038101906102349190611781565b61082f565b005b610255600480360381019061025091906117ca565b6108e4565b60405161026291906113fd565b60405180910390f35b61027361092c565b60405161028091906112f8565b60405180910390f35b6102a3600480360381019061029e91906117ca565b6109be565b6040516102b19291906117f7565b60405180910390f35b6102d460048036038101906102cf9190611378565b6109ef565b6040516102e191906113d3565b60405180910390f35b61030460048036038101906102ff919061123b565b610a12565b60405161031191906113fd565b60405180910390f35b610334600480360381019061032f9190611820565b610a88565b60405161034191906113fd565b60405180910390f35b6005805490508110610391576040517f08c379a0000000000000000000000000000000000000000000000000000000008152600401610388906118ac565b60405180910390fd5b600660003373ffffffffffffffffffffffffffffffffffffffff1673ffffffffffffffffffffffffffffffffffffffff16815260200190815260200160002060000160009054906101000a900460ff1615610421576040517f08c379a000000000000000000000000000000000000000000000000000000000815260040161041890611918565b60405180910390fd5b604051806040016040528060011515815260200182815250600660003373ffffffffffffffffffffffffffffffffffffffff1673ffffffffffffffffffffffffffffffffffffffff16815260200190815260200160002060008201518160000160006101000a81548160ff02191690831515021790555060208201518160010155905050600581815481106104b9576104b8611938565b5b906000526020600020906002020160010160008154809291906104db90611996565b9190505550803373ffffffffffffffffffffffffffffffffffffffff167fd0e6c39f2e086dc49f1524b47725526a56945cd1ff661f37976f1725a1e5698660405160405180910390a350565b60606003805461053690611a0d565b80601f016020809104026020016040519081016040528092919081815260200182805461056290611a0d565b80156105af5780601f10610584576101008083540402835291602001916105af565b820191906000526020600020905b81548152906001019060200180831161059257829003601f168201915b5050505050905090565b60006105fc6040518060400160405280600781526020017f417070726f766500000000000000000000000000000000000000000000000000815250338585610b30565b6106068383610bd2565b905092915050565b6000600254905090565b600061065b6040518060400160405280600c81526020017f5472616e7366657246726f6d0000000000000000000000000000000000000000815250858585610b30565b610666848484610bf5565b90509392505050565b60606005805480602002602001604051908101604052809291908181526020016000905b8282101561076157838290600052602060002090600202016040518060400160405290816000820180546106c690611a0d565b80601f01602080910402602001604051908101604052809291908181526020018280546106f290611a0d565b801561073f5780601f106107145761010080835404028352916020019161073f565b820191906000526020600020905b81548152906001019060200180831161072257829003601f168201915b5050505050815260200160018201548152505081526020019060010190610693565b50505050905090565b60006012905090565b6005818154811061078357600080fd5b90600052602060002090600202016000915090508060000180546107a690611a0d565b80601f01602080910402602001604051908101604052809291908181526020018280546107d290611a0d565b801561081f5780601f106107f45761010080835404028352916020019161081f565b820191906000526020600020905b81548152906001019060200180831161080257829003601f168201915b5050505050908060010154905082565b60006040518060400160405280838152602001600081525090506005819080600181540180825580915050600190039060005260206000209060020201600090919091909150600082015181600001908161088a9190611bea565b5060208201518160010155505060016005805490506108a99190611cbc565b7fe83b2a43e7e82d975c8a0a6d2f045153c869e111136a34d1889ab7b598e396a3836040516108d891906112f8565b60405180910390a25050565b60008060008373ffffffffffffffffffffffffffffffffffffffff1673ffffffffffffffffffffffffffffffffffffffff168152602001908152602001600020549050919050565b60606004805461093b90611a0d565b80601f016020809104026020016040519081016040528092919081815260200182805461096790611a0d565b80156109b45780601f10610989576101008083540402835291602001916109b4565b820191906000526020600020905b81548152906001019060200180831161099757829003601f168201915b5050505050905090565b60066020528060005260406000206000915090508060000160009054906101000a900460ff16908060010154905082565b6000806109fa610c24565b9050610a07818585610c2c565b600191505092915050565b60006005805490508210610a5b576040517f08c379a0000000000000000000000000000000000000000000000000000000008152600401610a52906118ac565b60405180910390fd5b60058281548110610a6f57610a6e611938565b5b9060005260206000209060020201600101549050919050565b6000600160008473ffffffffffffffffffffffffffffffffffffffff1673ffffffffffffffffffffffffffffffffffffffff16815260200190815260200160002060008373ffffffffffffffffffffffffffffffffffffffff1673ffffffffffffffffffffffffffffffffffffffff16815260200190815260200160002054905092915050565b60006a636f6e736f6c652e6c6f679050600080835160208501845afa505050565b610bcc84848484604051602401610b4a9493929190611cff565b6040516020818303038152906040527f8ef3f399000000000000000000000000000000000000000000000000000000007bffffffffffffffffffffffffffffffffffffffffffffffffffffffff19166020820180517bffffffffffffffffffffffffffffffffffffffffffffffffffffffff8381831617835250505050610d20565b50505050565b600080610bdd610c24565b9050610bea818585610d3a565b600191505092915050565b600080610c00610c24565b9050610c0d858285610d4c565b610c18858585610c2c565b60019150509392505050565b600033905090565b600073ffffffffffffffffffffffffffffffffffffffff168373ffffffffffffffffffffffffffffffffffffffff1603610c9e5760006040517f96c6fd1e000000000000000000000000000000000000000000000000000000008152600401610c959190611d4b565b60405180910390fd5b600073ffffffffffffffffffffffffffffffffffffffff168273ffffffffffffffffffffffffffffffffffffffff1603610d105760006040517fec442f05000000000000000000000000000000000000000000000000000000008152600401610d079190611d4b565b60405180910390fd5b610d1b838383610de0565b505050565b610d3781610d2f610b0f611005565b63ffffffff16565b50565b610d478383836001611010565b505050565b6000610d588484610a88565b90507fffffffffffffffffffffffffffffffffffffffffffffffffffffffffffffffff8114610dda5781811015610dca578281836040517ffb8f41b2000000000000000000000000000000000000000000000000000000008152600401610dc193929190611d66565b60405180910390fd5b610dd984848484036000611010565b5b50505050565b600073ffffffffffffffffffffffffffffffffffffffff168373ffffffffffffffffffffffffffffffffffffffff1603610e32578060026000828254610e269190611d9d565b92505081905550610f05565b60008060008573ffffffffffffffffffffffffffffffffffffffff1673ffffffffffffffffffffffffffffffffffffffff16815260200190815260200160002054905081811015610ebe578381836040517fe450d38c000000000000000000000000000000000000000000000000000000008152600401610eb593929190611d66565b60405180910390fd5b8181036000808673ffffffffffffffffffffffffffffffffffffffff1673ffffffffffffffffffffffffffffffffffffffff16815260200190815260200160002081905550505b600073ffffffffffffffffffffffffffffffffffffffff168273ffffffffffffffffffffffffffffffffffffffff1603610f4e5780600260008282540392505081905550610f9b565b806000808473ffffffffffffffffffffffffffffffffffffffff1673ffffffffffffffffffffffffffffffffffffffff168152602001908152602001600020600082825401925050819055505b8173ffffffffffffffffffffffffffffffffffffffff168373ffffffffffffffffffffffffffffffffffffffff167fddf252ad1be2c89b69c2b068fc378daa952ba7f163c4a11628f55a4df523b3ef83604051610ff891906113fd565b60405180910390a3505050565b6111e7819050919050565b600073ffffffffffffffffffffffffffffffffffffffff168473ffffffffffffffffffffffffffffffffffffffff16036110825760006040517fe602df050000000000000000000000000000000000000000000000000000000081526004016110799190611d4b565b60405180910390fd5b600073ffffffffffffffffffffffffffffffffffffffff168373ffffffffffffffffffffffffffffffffffffffff16036110f45760006040517f94280d620000000000000000000000000000000000000000000000000000000081526004016110eb9190611d4b565b60405180910390fd5b81600160008673ffffffffffffffffffffffffffffffffffffffff1673ffffffffffffffffffffffffffffffffffffffff16815260200190815260200160002060008573ffffffffffffffffffffffffffffffffffffffff1673ffffffffffffffffffffffffffffffffffffffff1681526020019081526020016000208190555080156111e1578273ffffffffffffffffffffffffffffffffffffffff168473ffffffffffffffffffffffffffffffffffffffff167f8c5be1e5ebec7d5bd14f71427d1e84f3dd0314c0f7b2291e5b200ac8c7c3b925846040516111d891906113fd565b60405180910390a35b50505050565b6111ef611dd1565b565b6000604051905090565b600080fd5b600080fd5b6000819050919050565b61121881611205565b811461122357600080fd5b50565b6000813590506112358161120f565b92915050565b600060208284031215611251576112506111fb565b5b600061125f84828501611226565b91505092915050565b600081519050919050565b600082825260208201905092915050565b60005b838110156112a2578082015181840152602081019050611287565b60008484015250505050565b6000601f19601f8301169050919050565b60006112ca82611268565b6112d48185611273565b93506112e4818560208601611284565b6112ed816112ae565b840191505092915050565b6000602082019050818103600083015261131281846112bf565b905092915050565b600073ffffffffffffffffffffffffffffffffffffffff82169050919050565b60006113458261131a565b9050919050565b6113558161133a565b811461136057600080fd5b50565b6000813590506113728161134c565b92915050565b6000806040838503121561138f5761138e6111fb565b5b600061139d85828601611363565b92505060206113ae85828601611226565b9150509250929050565b60008115159050919050565b6113cd816113b8565b82525050565b60006020820190506113e860008301846113c4565b92915050565b6113f781611205565b82525050565b600060208201905061141260008301846113ee565b92915050565b600080600060608486031215611431576114306111fb565b5b600061143f86828701611363565b935050602061145086828701611363565b925050604061146186828701611226565b9150509250925092565b600081519050919050565b600082825260208201905092915050565b6000819050602082019050919050565b600082825260208201905092915050565b60006114b382611268565b6114bd8185611497565b93506114cd818560208601611284565b6114d6816112ae565b840191505092915050565b6114ea81611205565b82525050565b6000604083016000830151848203600086015261150d82826114a8565b915050602083015161152260208601826114e1565b508091505092915050565b600061153983836114f0565b905092915050565b6000602082019050919050565b60006115598261146b565b6115638185611476565b93508360208202850161157585611487565b8060005b858110156115b15784840389528151611592858261152d565b945061159d83611541565b925060208a01995050600181019050611579565b50829750879550505050505092915050565b600060208201905081810360008301526115dd818461154e565b905092915050565b600060ff82169050919050565b6115fb816115e5565b82525050565b600060208201905061161660008301846115f2565b92915050565b6000604082019050818103600083015261163681856112bf565b905061164560208301846113ee565b9392505050565b600080fd5b600080fd5b7f4e487b7100000000000000000000000000000000000000000000000000000000600052604160045260246000fd5b61168e826112ae565b810181811067ffffffffffffffff821117156116ad576116ac611656565b5b80604052505050565b60006116c06111f1565b90506116cc8282611685565b919050565b600067ffffffffffffffff8211156116ec576116eb611656565b5b6116f5826112ae565b9050602081019050919050565b82818337600083830152505050565b600061172461171f846116d1565b6116b6565b9050828152602081018484840111156117405761173f611651565b5b61174b848285611702565b509392505050565b600082601f8301126117685761176761164c565b5b8135611778848260208601611711565b91505092915050565b600060208284031215611797576117966111fb565b5b600082013567ffffffffffffffff8111156117b5576117b4611200565b5b6117c184828501611753565b91505092915050565b6000602082840312156117e0576117df6111fb565b5b60006117ee84828501611363565b91505092915050565b600060408201905061180c60008301856113c4565b61181960208301846113ee565b9392505050565b60008060408385031215611837576118366111fb565b5b600061184585828601611363565b925050602061185685828601611363565b9150509250929050565b7f43616e646964617465204944206f7574206f662072616e676500000000000000600082015250565b6000611896601983611273565b91506118a182611860565b602082019050919050565b600060208201905081810360008301526118c581611889565b9050919050565b7f416c726561647920766f74656400000000000000000000000000000000000000600082015250565b6000611902600d83611273565b915061190d826118cc565b602082019050919050565b60006020820190508181036000830152611931816118f5565b9050919050565b7f4e487b7100000000000000000000000000000000000000000000000000000000600052603260045260246000fd5b7f4e487b7100000000000000000000000000000000000000000000000000000000600052601160045260246000fd5b60006119a182611205565b91507fffffffffffffffffffffffffffffffffffffffffffffffffffffffffffffffff82036119d3576119d2611967565b5b600182019050919050565b7f4e487b7100000000000000000000000000000000000000000000000000000000600052602260045260246000fd5b60006002820490506001821680611a2557607f821691505b602082108103611a3857611a376119de565b5b50919050565b60008190508160005260206000209050919050565b60006020601f8301049050919050565b600082821b905092915050565b600060088302611aa07fffffffffffffffffffffffffffffffffffffffffffffffffffffffffffffffff82611a63565b611aaa8683611a63565b95508019841693508086168417925050509392505050565b6000819050919050565b6000611ae7611ae2611add84611205565b611ac2565b611205565b9050919050565b6000819050919050565b611b0183611acc565b611b15611b0d82611aee565b848454611a70565b825550505050565b600090565b611b2a611b1d565b611b35818484611af8565b505050565b5b81811015611b5957611b4e600082611b22565b600181019050611b3b565b5050565b601f821115611b9e57611b6f81611a3e565b611b7884611a53565b81016020851015611b87578190505b611b9b611b9385611a53565b830182611b3a565b50505b505050565b600082821c905092915050565b6000611bc160001984600802611ba3565b1980831691505092915050565b6000611bda8383611bb0565b9150826002028217905092915050565b611bf382611268565b67ffffffffffffffff811115611c0c57611c0b611656565b5b611c168254611a0d565b611c21828285611b5d565b600060209050601f831160018114611c545760008415611c42578287015190505b611c4c8582611bce565b865550611cb4565b601f198416611c6286611a3e565b60005b82811015611c8a57848901518255600182019150602085019450602081019050611c65565b86831015611ca75784890151611ca3601f891682611bb0565b8355505b6001600288020188555050505b505050505050565b6000611cc782611205565b9150611cd283611205565b9250828203905081811115611cea57611ce9611967565b5b92915050565b611cf98161133a565b82525050565b60006080820190508181036000830152611d1981876112bf565b9050611d286020830186611cf0565b611d356040830185611cf0565b611d4260608301846113ee565b95945050505050565b6000602082019050611d606000830184611cf0565b92915050565b6000606082019050611d7b6000830186611cf0565b611d8860208301856113ee565b611d9560408301846113ee565b949350505050565b6000611da882611205565b9150611db383611205565b9250828201905080821115611dcb57611dca611967565b5b92915050565b7f4e487b7100000000000000000000000000000000000000000000000000000000600052605160045260246000fdfea26469706673582212209316c8369b08e496c49653db2b7d03fc65803b2cda52d34df184de3cc4c9cd6864736f6c634300081b0033",
  "linkReferences": {},
  "deployedLinkReferences": {}
}